{
  "contractName": "Gamble",
  "abi": [
    {
      "inputs": [
        {
          "internalType": "address",
          "name": "vrfCoordinator",
          "type": "address"
        },
        {
          "internalType": "address",
          "name": "link",
          "type": "address"
        },
        {
          "internalType": "bytes32",
          "name": "keyHash",
          "type": "bytes32"
        },
        {
          "internalType": "uint256",
          "name": "fee",
          "type": "uint256"
        }
      ],
      "stateMutability": "nonpayable",
      "type": "constructor"
    },
    {
      "anonymous": false,
      "inputs": [
        {
          "indexed": true,
          "internalType": "bytes32",
          "name": "requestId",
          "type": "bytes32"
        },
        {
          "indexed": true,
          "internalType": "uint256",
          "name": "result",
          "type": "uint256"
        }
      ],
      "name": "DiceLanded",
      "type": "event"
    },
    {
      "anonymous": false,
      "inputs": [
        {
          "indexed": true,
          "internalType": "bytes32",
          "name": "requestId",
          "type": "bytes32"
        },
        {
          "indexed": true,
          "internalType": "address",
          "name": "roller",
          "type": "address"
        }
      ],
      "name": "DiceRolled",
      "type": "event"
    },
    {
      "anonymous": false,
      "inputs": [
        {
          "indexed": true,
          "internalType": "address",
          "name": "from",
          "type": "address"
        },
        {
          "indexed": true,
          "internalType": "address",
          "name": "to",
          "type": "address"
        }
      ],
      "name": "OwnershipTransferRequested",
      "type": "event"
    },
    {
      "anonymous": false,
      "inputs": [
        {
          "indexed": true,
          "internalType": "address",
          "name": "from",
          "type": "address"
        },
        {
          "indexed": true,
          "internalType": "address",
          "name": "to",
          "type": "address"
        }
      ],
      "name": "OwnershipTransferred",
      "type": "event"
    },
    {
      "inputs": [],
      "name": "acceptOwnership",
      "outputs": [],
      "stateMutability": "nonpayable",
      "type": "function"
    },
    {
      "inputs": [],
      "name": "owner",
      "outputs": [
        {
          "internalType": "address",
          "name": "",
          "type": "address"
        }
      ],
      "stateMutability": "view",
      "type": "function"
    },
    {
      "inputs": [
        {
          "internalType": "bytes32",
          "name": "requestId",
          "type": "bytes32"
        },
        {
          "internalType": "uint256",
          "name": "randomness",
          "type": "uint256"
        }
      ],
      "name": "rawFulfillRandomness",
      "outputs": [],
      "stateMutability": "nonpayable",
      "type": "function"
    },
    {
      "inputs": [
        {
          "internalType": "address",
          "name": "_to",
          "type": "address"
        }
      ],
      "name": "transferOwnership",
      "outputs": [],
      "stateMutability": "nonpayable",
      "type": "function"
    },
    {
      "inputs": [
        {
          "internalType": "address",
          "name": "roller",
          "type": "address"
        }
      ],
      "name": "rollDice",
      "outputs": [
        {
          "internalType": "bytes32",
          "name": "requestId",
          "type": "bytes32"
        }
      ],
      "stateMutability": "nonpayable",
      "type": "function"
    },
    {
      "inputs": [
        {
          "internalType": "address",
          "name": "player",
          "type": "address"
        }
      ],
      "name": "house",
      "outputs": [
        {
          "internalType": "uint256",
          "name": "",
          "type": "uint256"
        }
      ],
      "stateMutability": "view",
      "type": "function"
    },
    {
      "inputs": [
        {
          "internalType": "address",
          "name": "to",
          "type": "address"
        },
        {
          "internalType": "uint256",
          "name": "value",
          "type": "uint256"
        }
      ],
      "name": "withdrawLINK",
      "outputs": [],
      "stateMutability": "nonpayable",
      "type": "function"
    },
    {
      "inputs": [
        {
          "internalType": "uint256",
          "name": "fee",
          "type": "uint256"
        }
      ],
      "name": "setFee",
      "outputs": [],
      "stateMutability": "nonpayable",
      "type": "function"
    },
    {
      "inputs": [],
      "name": "fee",
      "outputs": [
        {
          "internalType": "uint256",
          "name": "",
          "type": "uint256"
        }
      ],
      "stateMutability": "view",
      "type": "function"
    }
  ],
  "bytecode": "0x60c060405234801561001057600080fd5b5060405161157d38038061157d8339818101604052608081101561003357600080fd5b810190808051906020019092919080519060200190929190805190602001909291908051906020019092919050505083838173ffffffffffffffffffffffffffffffffffffffff1660a08173ffffffffffffffffffffffffffffffffffffffff166c0100000000000000000000000002815250508073ffffffffffffffffffffffffffffffffffffffff1660808173ffffffffffffffffffffffffffffffffffffffff166c010000000000000000000000000281525050505033600160006101000a81548173ffffffffffffffffffffffffffffffffffffffff021916908373ffffffffffffffffffffffffffffffffffffffff1602179055508160038190555080600481905550505050506080516c01000000000000000000000000900460a0516c0100000000000000000000000090046113ec6101916000398061058e52806110085250806107205280610b105280610fcc52506113ec6000f3fe608060405234801561001057600080fd5b50600436106100b0576000357c010000000000000000000000000000000000000000000000000000000090048063983fbab211610083578063983fbab21461016f578063b1cad5e3146101bd578063dd02d9e514610215578063ddca3f431461026d578063f2fde38b1461028b576100b0565b806369fe0e2d146100b557806379ba5097146100e35780638da5cb5b146100ed57806394985ddd14610137575b600080fd5b6100e1600480360360208110156100cb57600080fd5b81019080803590602001909291905050506102cf565b005b6100eb61039c565b005b6100f5610566565b604051808273ffffffffffffffffffffffffffffffffffffffff1673ffffffffffffffffffffffffffffffffffffffff16815260200191505060405180910390f35b61016d6004803603604081101561014d57600080fd5b81019080803590602001909291908035906020019092919050505061058c565b005b6101bb6004803603604081101561018557600080fd5b81019080803573ffffffffffffffffffffffffffffffffffffffff1690602001909291908035906020019092919050505061065b565b005b6101ff600480360360208110156101d357600080fd5b81019080803573ffffffffffffffffffffffffffffffffffffffff169060200190929190505050610892565b6040518082815260200191505060405180910390f35b6102576004803603602081101561022b57600080fd5b81019080803573ffffffffffffffffffffffffffffffffffffffff169060200190929190505050610a46565b6040518082815260200191505060405180910390f35b610275610d66565b6040518082815260200191505060405180910390f35b6102cd600480360360208110156102a157600080fd5b81019080803573ffffffffffffffffffffffffffffffffffffffff169060200190929190505050610d70565b005b600160009054906101000a900473ffffffffffffffffffffffffffffffffffffffff1673ffffffffffffffffffffffffffffffffffffffff163373ffffffffffffffffffffffffffffffffffffffff1614610392576040517f08c379a00000000000000000000000000000000000000000000000000000000081526004018080602001828103825260168152602001807f4f6e6c792063616c6c61626c65206279206f776e65720000000000000000000081525060200191505060405180910390fd5b8060048190555050565b600260009054906101000a900473ffffffffffffffffffffffffffffffffffffffff1673ffffffffffffffffffffffffffffffffffffffff163373ffffffffffffffffffffffffffffffffffffffff161461045f576040517f08c379a00000000000000000000000000000000000000000000000000000000081526004018080602001828103825260168152602001807f4d7573742062652070726f706f736564206f776e65720000000000000000000081525060200191505060405180910390fd5b6000600160009054906101000a900473ffffffffffffffffffffffffffffffffffffffff16905033600160006101000a81548173ffffffffffffffffffffffffffffffffffffffff021916908373ffffffffffffffffffffffffffffffffffffffff1602179055506000600260006101000a81548173ffffffffffffffffffffffffffffffffffffffff021916908373ffffffffffffffffffffffffffffffffffffffff1602179055503373ffffffffffffffffffffffffffffffffffffffff168173ffffffffffffffffffffffffffffffffffffffff167f8be0079c531659141344cd1fd0a4f28419497f9722a3daafe3b4186f6b6457e060405160405180910390a350565b600160009054906101000a900473ffffffffffffffffffffffffffffffffffffffff1681565b7f000000000000000000000000000000000000000000000000000000000000000073ffffffffffffffffffffffffffffffffffffffff163373ffffffffffffffffffffffffffffffffffffffff161461064d576040517f08c379a000000000000000000000000000000000000000000000000000000000815260040180806020018281038252601f8152602001807f4f6e6c7920565246436f6f7264696e61746f722063616e2066756c66696c6c0081525060200191505060405180910390fd5b6106578282610ef3565b5050565b600160009054906101000a900473ffffffffffffffffffffffffffffffffffffffff1673ffffffffffffffffffffffffffffffffffffffff163373ffffffffffffffffffffffffffffffffffffffff161461071e576040517f08c379a00000000000000000000000000000000000000000000000000000000081526004018080602001828103825260168152602001807f4f6e6c792063616c6c61626c65206279206f776e65720000000000000000000081525060200191505060405180910390fd5b7f000000000000000000000000000000000000000000000000000000000000000073ffffffffffffffffffffffffffffffffffffffff1663a9059cbb83836040518363ffffffff167c0100000000000000000000000000000000000000000000000000000000028152600401808373ffffffffffffffffffffffffffffffffffffffff1673ffffffffffffffffffffffffffffffffffffffff16815260200182815260200192505050602060405180830381600087803b1580156107e157600080fd5b505af11580156107f5573d6000803e3d6000fd5b505050506040513d602081101561080b57600080fd5b810190808051906020019092919050505061088e576040517f08c379a000000000000000000000000000000000000000000000000000000000815260040180806020018281038252600f8152602001807f4e6f7420656e6f756768204c494e4b000000000000000000000000000000000081525060200191505060405180910390fd5b5050565b600080600660008473ffffffffffffffffffffffffffffffffffffffff1673ffffffffffffffffffffffffffffffffffffffff168152602001908152602001600020541415610949576040517f08c379a000000000000000000000000000000000000000000000000000000000815260040180806020018281038252600f8152602001807f44696365206e6f7420726f6c6c6564000000000000000000000000000000000081525060200191505060405180910390fd5b602a600660008473ffffffffffffffffffffffffffffffffffffffff1673ffffffffffffffffffffffffffffffffffffffff1681526020019081526020016000205414156109ff576040517f08c379a00000000000000000000000000000000000000000000000000000000081526004018080602001828103825260108152602001807f526f6c6c20696e2070726f67726573730000000000000000000000000000000081525060200191505060405180910390fd5b600660008373ffffffffffffffffffffffffffffffffffffffff1673ffffffffffffffffffffffffffffffffffffffff168152602001908152602001600020549050919050565b6000600160009054906101000a900473ffffffffffffffffffffffffffffffffffffffff1673ffffffffffffffffffffffffffffffffffffffff163373ffffffffffffffffffffffffffffffffffffffff1614610b0b576040517f08c379a00000000000000000000000000000000000000000000000000000000081526004018080602001828103825260168152602001807f4f6e6c792063616c6c61626c65206279206f776e65720000000000000000000081525060200191505060405180910390fd5b6004547f000000000000000000000000000000000000000000000000000000000000000073ffffffffffffffffffffffffffffffffffffffff166370a08231306040518263ffffffff167c0100000000000000000000000000000000000000000000000000000000028152600401808273ffffffffffffffffffffffffffffffffffffffff1673ffffffffffffffffffffffffffffffffffffffff16815260200191505060206040518083038186803b158015610bc757600080fd5b505afa158015610bdb573d6000803e3d6000fd5b505050506040513d6020811015610bf157600080fd5b81019080805190602001909291905050501015610c76576040517f08c379a000000000000000000000000000000000000000000000000000000000815260040180806020018281038252601a8152602001807f4e6f7420656e6f756768204c494e4b20746f207061792066656500000000000081525060200191505060405180910390fd5b610c84600354600454610fc8565b9050816005600083815260200190815260200160002060006101000a81548173ffffffffffffffffffffffffffffffffffffffff021916908373ffffffffffffffffffffffffffffffffffffffff160217905550602a600660008473ffffffffffffffffffffffffffffffffffffffff1673ffffffffffffffffffffffffffffffffffffffff168152602001908152602001600020819055508173ffffffffffffffffffffffffffffffffffffffff16817f923de4fc4aece24a78a9e4ca3009c571a742f81ac2c004a229224b0fd1883bdd60405160405180910390a3919050565b6000600454905090565b600160009054906101000a900473ffffffffffffffffffffffffffffffffffffffff1673ffffffffffffffffffffffffffffffffffffffff163373ffffffffffffffffffffffffffffffffffffffff1614610e33576040517f08c379a00000000000000000000000000000000000000000000000000000000081526004018080602001828103825260168152602001807f4f6e6c792063616c6c61626c65206279206f776e65720000000000000000000081525060200191505060405180910390fd5b80600260006101000a81548173ffffffffffffffffffffffffffffffffffffffff021916908373ffffffffffffffffffffffffffffffffffffffff1602179055508073ffffffffffffffffffffffffffffffffffffffff16600160009054906101000a900473ffffffffffffffffffffffffffffffffffffffff1673ffffffffffffffffffffffffffffffffffffffff167fed8889f560326eb138920d842192f0eb3dd22b4f139c87a2c57538e05bae127860405160405180910390a350565b6000610f1c6001610f0e6002856111f090919063ffffffff16565b61127a90919063ffffffff16565b905080600660006005600087815260200190815260200160002060009054906101000a900473ffffffffffffffffffffffffffffffffffffffff1673ffffffffffffffffffffffffffffffffffffffff1673ffffffffffffffffffffffffffffffffffffffff1681526020019081526020016000208190555080837f909dd726737b7ffa4ae9d137e9edebe8a74a9c2910a4b60e8112f93ab217083760405160405180910390a3505050565b60007f000000000000000000000000000000000000000000000000000000000000000073ffffffffffffffffffffffffffffffffffffffff16634000aea07f00000000000000000000000000000000000000000000000000000000000000008486600060405160200180838152602001828152602001925050506040516020818303038152906040526040518463ffffffff167c0100000000000000000000000000000000000000000000000000000000028152600401808473ffffffffffffffffffffffffffffffffffffffff1673ffffffffffffffffffffffffffffffffffffffff16815260200183815260200180602001828103825283818151815260200191508051906020019080838360005b838110156110f45780820151818401526020810190506110d9565b50505050905090810190601f1680156111215780820380516001836020036101000a031916815260200191505b50945050505050602060405180830381600087803b15801561114257600080fd5b505af1158015611156573d6000803e3d6000fd5b505050506040513d602081101561116c57600080fd5b810190808051906020019092919050505050600061119f8460003060008089815260200190815260200160002054611302565b90506111c760016000808781526020019081526020016000205461127a90919063ffffffff16565b600080868152602001908152602001600020819055506111e7848261137d565b91505092915050565b600080821415611268576040517f08c379a00000000000000000000000000000000000000000000000000000000081526004018080602001828103825260188152602001807f536166654d6174683a206d6f64756c6f206279207a65726f000000000000000081525060200191505060405180910390fd5b81838161127157fe5b06905092915050565b6000808284019050838110156112f8576040517f08c379a000000000000000000000000000000000000000000000000000000000815260040180806020018281038252601b8152602001807f536166654d6174683a206164646974696f6e206f766572666c6f77000000000081525060200191505060405180910390fd5b8091505092915050565b600084848484604051602001808581526020018481526020018373ffffffffffffffffffffffffffffffffffffffff1673ffffffffffffffffffffffffffffffffffffffff16815260200182815260200194505050505060405160208183030381529060405280519060200120600190049050949350505050565b6000828260405160200180838152602001828152602001925050506040516020818303038152906040528051906020012090509291505056fea2646970667358221220a09508dba663986fd837960d57e8924951b0efedbbc5745a76c3bfdc9d47736f64736f6c63430006060033",
  "immutableReferences": {
    "626": [
      {
        "length": 32,
        "start": 1824
      },
      {
        "length": 32,
        "start": 2832
      },
      {
        "length": 32,
        "start": 4044
      }
    ],
    "628": [
      {
        "length": 32,
        "start": 1422
      },
      {
        "length": 32,
        "start": 4104
      }
    ]
  },
  "source": "// SPDX-License-Identifier: MIT\npragma solidity 0.6.6;\n\nimport \"@chainlink/contracts/src/v0.6/VRFConsumerBase.sol\";\nimport \"@chainlink/contracts/src/v0.6/Owned.sol\";\n\ncontract Gamble is VRFConsumerBase, Owned {\n    using SafeMathChainlink for uint256;\n\n    uint256 private constant ROLL_IN_PROGRESS = 42;\n\n    bytes32 private s_keyHash;\n    uint256 private s_fee;\n    mapping(bytes32 => address) private s_rollers;\n    mapping(address => uint256) private s_results;\n\n    event DiceRolled(bytes32 indexed requestId, address indexed roller);\n    event DiceLanded(bytes32 indexed requestId, uint256 indexed result);\n\n    constructor(address vrfCoordinator, address link, bytes32 keyHash, uint256 fee) public VRFConsumerBase(vrfCoordinator, link) {\n        s_keyHash = keyHash;\n        s_fee = fee;\n    }\n\n    function rollDice(address roller) public onlyOwner returns (bytes32 requestId) {\n        require(LINK.balanceOf(address(this)) >= s_fee, \"Not enough LINK to pay fee\");\n        requestId = requestRandomness(s_keyHash, s_fee);\n        s_rollers[requestId] = roller;\n        s_results[roller] = ROLL_IN_PROGRESS;\n        emit DiceRolled(requestId, roller);\n    }\n\n    function fulfillRandomness(bytes32 requestId, uint256 randomness) internal override {\n        uint256 d20Value = randomness.mod(2).add(1);\n        s_results[s_rollers[requestId]] = d20Value;\n        emit DiceLanded(requestId, d20Value);\n    }\n\n    function house(address player) public view returns (uint256) {\n        require(s_results[player] != 0, \"Dice not rolled\");\n        require(s_results[player] != ROLL_IN_PROGRESS, \"Roll in progress\");\n        return s_results[player];\n    }\n\n    function withdrawLINK(address to, uint256 value) public onlyOwner {\n        require(LINK.transfer(to, value), \"Not enough LINK\");\n    }\n\n    function setFee(uint256 fee) public onlyOwner {\n        s_fee = fee;\n    }\n\n    function fee() public view returns (uint256) {\n        return s_fee;\n    }\n}\n",
  "sourcePath": "/home/netrat/dev/dapps/gamble/contracts/Gamble.sol",
  "compiler": {
    "name": "solc",
    "version": "0.6.6+commit.6c089d02.Emscripten.clang"
  },
  "schemaVersion": "3.4.1",
  "updatedAt": "2021-06-28T01:12:41.974Z",
  "devdoc": {
    "methods": {
      "acceptOwnership()": {
        "details": "Allows an ownership transfer to be completed by the recipient."
      },
      "transferOwnership(address)": {
        "details": "Allows an owner to begin transferring ownership to a new address, pending."
      }
    }
  },
  "userdoc": {
    "methods": {}
  }
}